:100000000C94FD000C941A010C941A010C941A0122
:100010000C941A010C941A010C941A010C941A01F4
:100020000C941A010C941A010C941A010C941A01E4
:100030000C941A010C941A010C941A010C941A01D4
:100040000C941A010C941A010C941A010C941A01C4
:100050000C941A010C941A010C941A010C941A01B4
:100060000C9448010C941A0158025C025C025C0278
:100070005C025C025C025C0268015C025C025C0285
:100080005C025C025C025C0268015C025C025C0275
:100090005C025C025C025C0270015C025C025C025D
:1000A0005C025C025C025C0297015C025C025C0226
:1000B0005C025C025C025C0270015C025C025C023D
:1000C0005C025C025C025C029D015C025C025C0200
:1000D0005C025C025C025C02A3015C025C025C02EA
:1000E0005C025C025C025C02B5015C025C025C02C8
:1000F0005C025C025C025C02E0015C025C025C028D
:100100005C025C025C025C02A9015C025C025C02B3
:100110005C025C025C025C02C3015C025C025C0289
:100120005C025C025C025C02E3015C025C025C0259
:100130005C025C025C025C02E3015C025C025C0249
:100140005C025C025C025C02E3015C025C025C0239
:100150005C025C025C025C02E3015C025C025C0229
:100160005C025C025C025C02EC015C025C025C0210
:100170005C025C025C025C021F025C025C025C02CC
:100180005C025C025C025C02EC015C025C025C02F0
:100190005C025C025C025C021F025C025C025C02AC
:1001A0005C025C025C025C0204025C025C025C02B7
:1001B0005C025C025C025C0223025C025C025C0288
:1001C0005C025C025C025C0223025C025C025C0278
:1001D0005C025C025C025C0238025C025C025C0253
:1001E0005C025C025C025C0252025C025C025C0229
:1001F0005C025C025C025C02520211241FBECFEF63
:10020000D8E0DEBFCDBF11E0A0E0B1E0EAEFF4E05E
:1002100002C005900D92A230B107D9F721E0A2E00B
:10022000B1E001C01D92A137B207E1F70E946D0253
:100230000C947B020C94000010926F0180910001DD
:1002400080936D018091700180936C018FEF88B96C
:10025000E9EBF0E080818E7F808380818D7F8083D9
:1002600080E28093B80085E48093BC00089585ED1A
:100270008093BC00ECEBF0E0808184FDFDCF109218
:100280006F01089585EC8093BC0010926F01089572
:100290001F920F920FB60F9211242F933F934F93FB
:1002A0005F936F937F938F939F93AF93BF93EF93DE
:1002B000FF938091B900E82FE87F8E2F90E0893C72
:1002C000910508F0F9C0FC01EC5CFF4F0C9475023D
:1002D00080916E018093BB0085EC8093BC00ECC0E4
:1002E0009091470180914601981780F4E091470171
:1002F00081E08E0F80934701F0E0E85BFE4F808144
:100300008093BB0085EC8093BC00D6C080916D01CA
:10031000882319F00E943701CFC08091000180939B
:100320006C0184EA8093BC0010926F01C5C080E22A
:10033000809302010E943701BFC080E380930201D5
:100340000E943701B9C088E3809302010E944201F4
:10035000B3C0E091470181E08E0F80934701809107
:10036000BB00F0E0E85BFE4F8083909147018091F5
:100370004601981720F485EC8093BC009DC085E869
:100380008093BC0099C0E091470181E08E0F80937B
:1003900047018091BB00F0E0E85BFE4F80838091D5
:1003A0006D01882319F00E94370186C080910001F9
:1003B00080936C0184EA8093BC0010926F017CC032
:1003C0000E94370179C083E080936F01109203018E
:1003D00085EC8093BC0070C080910301803280F472
:1003E000E091030181E08E0F809303018091BB00B7
:1003F000F0E0EC5FFE4F808385EC8093BC005CC036
:1004000085E88093BC0058C080910301803230F4AD
:10041000E0910301F0E0EC5FFE4F10820E94370193
:100420006091030170E0E0916801F091690184E05E
:1004300091E00995109203010E9442013DC085E8B8
:100440008093BC0039C084E080936F011092250135
:1004500010922401E0916A01F0916B01099580915D
:100460002401811105C081E08093240110922601AE
:10047000E091250181E08E0F80932501F0E0EA5D97
:10048000FE4F80818093BB009091250180912401D3
:10049000981720F485EC8093BC000EC085E880930B
:1004A000BC000AC085EC8093BC0010926F0104C0B0
:1004B000109202010E943701FF91EF91BF91AF911D
:1004C0009F918F917F916F915F914F913F912F916C
:1004D0000F900FBE0F901F9018950E941C018EEA7E
:1004E0008093BA0080E090E00895EE0FFF1F059022
:0A04F000F491E02D0994F894FFCF79
:0204FA00FF0001
:00000001FF
