:100000000C945A000C9477000C9477000C947700B1
:100010000C9477000C9477000C9477000C94770084
:100020000C9477000C9477000C9477000C94770074
:100030000C9477000C9477000C9477000C94770064
:100040000C9477000C9477000C9477000C94770054
:100050000C9477000C9477000C9477000C94770044
:100060000C9487000C9477000C9477000C94770024
:100070000C9477000C9477000C9477000C94770024
:100080000C9477000C9477000C9477000C94770014
:100090000C9477000C9477000C9477000C94770004
:1000A0000C9477000C9477000C9477000C947700F4
:1000B0000C94770011241FBECFEFD8E0DEBFCDBF78
:1000C00011E0A0E0B1E0E8ECF1E002C005900D9293
:1000D000A033B107D9F721E0A0E3B1E001C01D9240
:1000E000A533B207E1F70E94C4000C94E2000C941F
:1000F000000017B88FEF88B9789460E380E091E052
:100100000E94DB0066E087E50E94C90008951F9207
:100110000F920FB60F9211242F933F934F935F933B
:100120006F937F938F939F93AF93BF93EF93FF93BF
:100130000E94D700803621F48091BB008093320169
:100140000E94D700803821F48091BB008093330156
:100150000E94D700883B21F4809133018093BB003B
:1001600085EC8093BC00FF91EF91BF91AF919F917F
:100170008F917F916F915F914F913F912F910F9050
:100180000FBE0F901F9018950E94790080E090E0BC
:1001900008951092B90090E29093B800880F809370
:1001A000BA006093BD0085EC8093BC0008958091F7
:1001B000B900887F08956093340190933101809352
:0801C00030010895F894FFCF0F
:1001C80000000003002A3104100000340C1A09034F
:1001D80000000000000000007B7C7D7E7F80818223
:1001E8000000000000000000FFFFFFFFFFFFFFFF0F
:00000001FF
