:060000000C9434000C9486
:1000060000000C9400000C9400000C9400000C946A
:1000160000000C9400000C9400000C9400000C945A
:1000260000000C9400000C9400000C9400000C944A
:1000360000000C9400000C9400000C9400000C943A
:1000460000000C9400000C9400000C9400000C942A
:1000560000000C9400000C9400000C945A000C94C0
:100066000000F894EE27EFBBF1E0F5BFE5BFF8E13D
:10007600A895A4B7A77FA4BFF0936000E0936000A3
:100086008DE0A2E0BB27ED938A95E9F780E098E042
:10009600A0E0B1E0ED930197E9F7E0E0EEBBEFEF0A
:1000A600EDBFE8E0EEBFC0E0D3E00C9492000A9208
:1000B6001A92FA926A937A938A939A93AA93BA9324
:1000C600EA93FA93EFB7EA9326D0E03611F430902C
:1000D600BB0021D0E03831F42197E091BB00E883E2
:1000E6004880219618D0E83B11F44092BB00EBE71C
:1000F600E093BB00E5E4E093BC00E991EFBFF99122
:10010600E991B991A9919991899179916991F9901A
:10011600199009901895E091B900E87F0895E0E8F4
:10012600E0936100E0E0E0936100E5B9E4B9EFEF48
:10013600E8B9E7B9E0E0EBB9EAB9E4BDE5BDE6BD8B
:10014600E7BDE8BDE0938000E0938100E093850081
:10015600E0938400E0938700E0938600E0938900B3
:10016600E0938800E0938B00E0938A00E093B6006A
:10017600E093B000E093B100E093B200E093B300E7
:10018600E093B400E0936900EDBBE0936800E09370
:100196006E00E0936F00E0937000E093C100E0E82A
:1001A600E0BFE0E0E0937B00E0937F00E0937A001D
:1001B600ECBDE0E2E093B800EEEAE093BA00E5E4D5
:1001C600E093BC00E0E0E093B9007894FFCFFFCF66
:00000001FF
